{
  "_format": "hh-sol-artifact-1",
  "contractName": "Assessment",
  "sourceName": "contracts/Assessment.sol",
  "abi": [
    {
      "inputs": [
        {
          "internalType": "uint256",
          "name": "initBalance",
          "type": "uint256"
        }
      ],
      "stateMutability": "payable",
      "type": "constructor"
    },
    {
      "inputs": [
        {
          "internalType": "uint256",
          "name": "balance",
          "type": "uint256"
        },
        {
          "internalType": "uint256",
          "name": "lockAmount",
          "type": "uint256"
        }
      ],
      "name": "InsufficientLBalance",
      "type": "error"
    },
    {
      "inputs": [
        {
          "internalType": "uint256",
          "name": "balance",
          "type": "uint256"
        },
        {
          "internalType": "uint256",
          "name": "unlockAmount",
          "type": "uint256"
        }
      ],
      "name": "InsufficientUBalance",
      "type": "error"
    },
    {
      "inputs": [
        {
          "internalType": "uint256",
          "name": "balance",
          "type": "uint256"
        },
        {
          "internalType": "uint256",
          "name": "withdrawAmount",
          "type": "uint256"
        }
      ],
      "name": "InsufficientWBalance",
      "type": "error"
    },
    {
      "anonymous": false,
      "inputs": [
        {
          "indexed": false,
          "internalType": "uint256",
          "name": "amountL",
          "type": "uint256"
        }
      ],
      "name": "AmountLocked",
      "type": "event"
    },
    {
      "anonymous": false,
      "inputs": [
        {
          "indexed": false,
          "internalType": "uint256",
          "name": "amountU",
          "type": "uint256"
        }
      ],
      "name": "AmountUnlocked",
      "type": "event"
    },
    {
      "anonymous": false,
      "inputs": [
        {
          "indexed": false,
          "internalType": "uint256",
          "name": "amountD",
          "type": "uint256"
        }
      ],
      "name": "Deposit",
      "type": "event"
    },
    {
      "anonymous": false,
      "inputs": [
        {
          "indexed": false,
          "internalType": "uint256",
          "name": "amountW",
          "type": "uint256"
        }
      ],
      "name": "Withdraw",
      "type": "event"
    },
    {
      "inputs": [],
      "name": "balance",
      "outputs": [
        {
          "internalType": "uint256",
          "name": "",
          "type": "uint256"
        }
      ],
      "stateMutability": "view",
      "type": "function"
    },
    {
      "inputs": [
        {
          "internalType": "uint256",
          "name": "_amountD",
          "type": "uint256"
        }
      ],
      "name": "deposit",
      "outputs": [],
      "stateMutability": "payable",
      "type": "function"
    },
    {
      "inputs": [],
      "name": "getBalance",
      "outputs": [
        {
          "internalType": "uint256",
          "name": "",
          "type": "uint256"
        }
      ],
      "stateMutability": "view",
      "type": "function"
    },
    {
      "inputs": [
        {
          "internalType": "uint256",
          "name": "_lockAmount",
          "type": "uint256"
        }
      ],
      "name": "lock",
      "outputs": [],
      "stateMutability": "nonpayable",
      "type": "function"
    },
    {
      "inputs": [],
      "name": "lockedAmount",
      "outputs": [
        {
          "internalType": "uint256",
          "name": "",
          "type": "uint256"
        }
      ],
      "stateMutability": "view",
      "type": "function"
    },
    {
      "inputs": [],
      "name": "owner",
      "outputs": [
        {
          "internalType": "address payable",
          "name": "",
          "type": "address"
        }
      ],
      "stateMutability": "view",
      "type": "function"
    },
    {
      "inputs": [
        {
          "internalType": "uint256",
          "name": "_unlockAmount",
          "type": "uint256"
        }
      ],
      "name": "unlock",
      "outputs": [],
      "stateMutability": "nonpayable",
      "type": "function"
    },
    {
      "inputs": [
        {
          "internalType": "uint256",
          "name": "_withdrawAmount",
          "type": "uint256"
        }
      ],
      "name": "withdraw",
      "outputs": [],
      "stateMutability": "nonpayable",
      "type": "function"
    }
  ],
  "bytecode": "0x6080604052604051610aaf380380610aaf833981810160405281019061002591906100ad565b336000806101000a81548173ffffffffffffffffffffffffffffffffffffffff021916908373ffffffffffffffffffffffffffffffffffffffff16021790555080600181905550506100da565b600080fd5b6000819050919050565b61008a81610077565b811461009557600080fd5b50565b6000815190506100a781610081565b92915050565b6000602082840312156100c3576100c2610072565b5b60006100d184828501610098565b91505092915050565b6109c6806100e96000396000f3fe60806040526004361061007b5760003560e01c80638da5cb5b1161004e5780638da5cb5b14610128578063b69ef8a814610153578063b6b55f251461017e578063dd4670641461019a5761007b565b806312065fe0146100805780632e1a7d4d146100ab5780636198e339146100d45780636ab28bc8146100fd575b600080fd5b34801561008c57600080fd5b506100956101c3565b6040516100a29190610729565b60405180910390f35b3480156100b757600080fd5b506100d260048036038101906100cd9190610775565b6101cd565b005b3480156100e057600080fd5b506100fb60048036038101906100f69190610775565b61032b565b005b34801561010957600080fd5b5061011261047c565b60405161011f9190610729565b60405180910390f35b34801561013457600080fd5b5061013d610482565b60405161014a91906107e3565b60405180910390f35b34801561015f57600080fd5b506101686104a6565b6040516101759190610729565b60405180910390f35b61019860048036038101906101939190610775565b6104ac565b005b3480156101a657600080fd5b506101c160048036038101906101bc9190610775565b6105b2565b005b6000600154905090565b60008054906101000a900473ffffffffffffffffffffffffffffffffffffffff1673ffffffffffffffffffffffffffffffffffffffff163373ffffffffffffffffffffffffffffffffffffffff161461025b576040517f08c379a000000000000000000000000000000000000000000000000000000000815260040161025290610881565b60405180910390fd5b600060015490508160025460015461027391906108d0565b10156102ba57600154826040517f0df3528f0000000000000000000000000000000000000000000000000000000081526004016102b1929190610904565b60405180910390fd5b81600160008282546102cc91906108d0565b9250508190555081816102df91906108d0565b600154146102f0576102ef61092d565b5b7f5b6b431d4476a211bb7d41c20d1aab9ae2321deee0d20be3d9fc9b1093fa6e3d8260405161031f9190610729565b60405180910390a15050565b60008054906101000a900473ffffffffffffffffffffffffffffffffffffffff1673ffffffffffffffffffffffffffffffffffffffff163373ffffffffffffffffffffffffffffffffffffffff16146103b9576040517f08c379a00000000000000000000000000000000000000000000000000000000081526004016103b090610881565b60405180910390fd5b6000600254905081600254101561040b57600154826040517fddca93d7000000000000000000000000000000000000000000000000000000008152600401610402929190610904565b60405180910390fd5b816002600082825461041d91906108d0565b92505081905550818161043091906108d0565b600254146104415761044061092d565b5b7feee647db6c0a03db5d39e16a06c406c207433efb223094007a77ecfbd0169a23826040516104709190610729565b60405180910390a15050565b60025481565b60008054906101000a900473ffffffffffffffffffffffffffffffffffffffff1681565b60015481565b6000600154905060008054906101000a900473ffffffffffffffffffffffffffffffffffffffff1673ffffffffffffffffffffffffffffffffffffffff163373ffffffffffffffffffffffffffffffffffffffff1614610541576040517f08c379a000000000000000000000000000000000000000000000000000000000815260040161053890610881565b60405180910390fd5b8160016000828254610553919061095c565b925050819055508181610566919061095c565b600154146105775761057661092d565b5b7f4d6ce1e535dbade1c23defba91e23b8f791ce5edc0cc320257a2b364e4e38426826040516105a69190610729565b60405180910390a15050565b60008054906101000a900473ffffffffffffffffffffffffffffffffffffffff1673ffffffffffffffffffffffffffffffffffffffff163373ffffffffffffffffffffffffffffffffffffffff1614610640576040517f08c379a000000000000000000000000000000000000000000000000000000000815260040161063790610881565b60405180910390fd5b600060025490508160025460015461065891906108d0565b101561069f57600154826040517feb17f367000000000000000000000000000000000000000000000000000000008152600401610696929190610904565b60405180910390fd5b81600260008282546106b1919061095c565b9250508190555081816106c4919061095c565b600254146106d5576106d461092d565b5b7f32a11d9a6f64cf74abc74794ba759132067735517ec050f7016153b66ffbce99826040516107049190610729565b60405180910390a15050565b6000819050919050565b61072381610710565b82525050565b600060208201905061073e600083018461071a565b92915050565b600080fd5b61075281610710565b811461075d57600080fd5b50565b60008135905061076f81610749565b92915050565b60006020828403121561078b5761078a610744565b5b600061079984828501610760565b91505092915050565b600073ffffffffffffffffffffffffffffffffffffffff82169050919050565b60006107cd826107a2565b9050919050565b6107dd816107c2565b82525050565b60006020820190506107f860008301846107d4565b92915050565b600082825260208201905092915050565b7f596f7520617265206e6f7420746865206f776e6572206f66207468697320616360008201527f636f756e74000000000000000000000000000000000000000000000000000000602082015250565b600061086b6025836107fe565b91506108768261080f565b604082019050919050565b6000602082019050818103600083015261089a8161085e565b9050919050565b7f4e487b7100000000000000000000000000000000000000000000000000000000600052601160045260246000fd5b60006108db82610710565b91506108e683610710565b92508282039050818111156108fe576108fd6108a1565b5b92915050565b6000604082019050610919600083018561071a565b610926602083018461071a565b9392505050565b7f4e487b7100000000000000000000000000000000000000000000000000000000600052600160045260246000fd5b600061096782610710565b915061097283610710565b925082820190508082111561098a576109896108a1565b5b9291505056fea26469706673582212200ad29766eeb859e4651b77b5d15f2bc276a6471f1df28ec26f95771c87ff8c1864736f6c63430008110033",
  "linkReferences": {},
  "deployedLinkReferences": {}
}